:020000040000FA
:100000000C945D000C9485000C9485000C94850084
:100010000C9485000C9485000C9485000C9485004C
:100020000C9485000C9485000C9485000C9485003C
:100030000C9485000C9485000C9485000C9485002C
:100040000C94DD020C9485000C9485000C948500C2
:100050000C9485000C9485000C9485000C9485000C
:100060000C9485000C94850000000008000201003B
:100070000003040700000000000000000000000072
:10008000250028002B0000000000240027002A0083
:10009000040404040404040402020202020203032E
:1000A0000303030301020408102040800102040836
:1000B00010200102040810207E0411241FBECFEF7F
:1000C000D8E0DEBFCDBF11E0A0E0B1E0E4E0FEE0AB
:1000D00002C005900D92AE31B107D9F721E0AEE133
:1000E000B1E001C01D92AF33B207E1F710E0CDE5FA
:1000F000D0E004C02197FE010E94FA06CC35D1075A
:10010000C9F70E9427030C9400070C94000090E0AC
:10011000FC01EC55FF4F249180579F4FFC018491C7
:10012000882399F090E0880F991FFC01EA57FF4F50
:10013000A591B491FC01E458FF4F859194918FB73C
:10014000F894EC91E22BEC938FBF0895AF92BF929D
:10015000CF92DF92EF92FF920F931F93CF93DF9393
:100160006C017B018B01040F151FEB015E01AE18C2
:10017000BF08C017D10759F06991D601ED91FC91E4
:100180000190F081E02DC6010995892B79F7C50111
:10019000DF91CF911F910F91FF90EF90DF90CF9063
:1001A000BF90AF90089590E0FC01E859FF4F249173
:1001B000FC01EC55FF4F3491FC01E057FF4FE491F7
:1001C000EE23C9F0222339F0233001F1A8F42130C5
:1001D00019F1223029F1F0E0EE0FFF1FE458FF4F34
:1001E000A591B4918FB7F894EC91611126C0309528
:1001F0003E233C938FBF08952730A9F02830C9F0E3
:10020000243049F7809180008F7D03C08091800069
:100210008F7780938000DFCF84B58F7784BDDBCF6D
:1002200084B58F7DFBCF8091B0008F778093B00035
:10023000D2CF8091B0008F7DF9CF3E2BDACF3FB780
:10024000F8948091230190912401A0912501B0910F
:10025000260126B5A89B05C02F3F19F00196A11DC8
:10026000B11D3FBFBA2FA92F982F8827BC01CD0100
:10027000620F711D811D911D42E0660F771F881F5F
:10028000991F4A95D1F70895089590E080E0089568
:10029000FC0101900020E9F73197AF01481B590B91
:1002A000BC0187E291E00C94A6008F929F92AF92DE
:1002B000BF920F931F93CF93DF93CDB7DEB7A19774
:1002C0000FB6F894DEBF0FBECDBF19A2423008F4BE
:1002D0004AE08E010F5D1F4F842E912CB12CA12C72
:1002E000A50194010E94D806E62FB901CA01EA309F
:1002F000F4F4E05DD801EE938D01232B242B252B04
:1003000079F790E080E0109719F0CD010E94480144
:10031000A1960FB6F894DEBF0FBECDBFDF91CF918F
:100320001F910F91BF90AF909F908F900895E95CBF
:10033000E1CFCF93DF93EC0160E08E810E94D30088
:1003400061E08E810E94D30060E08E810E94D30024
:100350008BE891E00197F1F7DF91CF910895CF926B
:10036000DF92EF92FF920F931F93CF93DF936C0175
:100370007C0187E0E80EF11CD0E0C0E0062F10E021
:10038000B8010C2E02C0759567950A94E2F761706A
:10039000F70181917F010E94D3002196C430D105DD
:1003A00079F7C601DF91CF911F910F91FF90EF90E8
:1003B000DF90CF900C949901CF92DF92EF92FF9251
:1003C0000F931F93CF93DF93EC01F62E642F8C8154
:1003D0000E94D3008D818F3F19F060E00E94D3000E
:1003E0000F2D10E08F8584FF25C06E0187E0C80EB9
:1003F000D11CF12CE12CB8010E2C02C0759567952B
:100400000A94E2F76170F60181916F010E94D300B6
:10041000FFEFEF1AFF0A88E0E816F10461F7CE015A
:10042000DF91CF911F910F91FF90EF90DF90CF90D0
:100430000C949901B80184E0759567958A95E1F768
:10044000CE010E94AF016F2DCE01DF91CF911F91A0
:100450000F91FF90EF90DF90CF900C94AF0140E0B0
:10046000682F87E291E00C94DC01CF93DF93823018
:1004700029F49091360198609093360180933A0167
:1004800010923B0180E480933C0180E180933D0128
:1004900080E580933E0180912B010E94870080912E
:1004A0002C018F3F11F00E94870080912D010E9446
:1004B0008700C7E2D1E09E0127523140809136018A
:1004C00084FD0AC084E090E02196281739073CF4A7
:1004D0008E810E948700EFCF88E090E0F5CF8BE31C
:1004E0009DE00197F1F760E080912B010E94D3001D
:1004F00060E080912D010E94D30080912C018F3FFC
:1005000019F060E00E94D3008091360184FD39C06B
:1005100063E087E291E00E94AF01CBE4D6E4CE0134
:100520000197F1F763E087E291E00E94AF01219724
:10053000F1F763E087E291E00E94AF0183E592E08A
:100540000197F1F762E087E291E00E94AF018091AC
:10055000360180620E942F0284E0809337018CE094
:100560000E942F0281E00E942F028BE39FE10197FE
:10057000F1F782E08093380186E0DF91CF910C940F
:100580002F0280620E942F028BE496E40197F1F71C
:100590008091360180620E942F0283E592E00197EC
:1005A000F1F78091360180620E942F02D0CF41E0A6
:1005B0000E94DC0181E090E008951F920F920FB637
:1005C0000F9211242F933F938F939F93AF93BF93D9
:1005D00080911F0190912001A0912101B0912201F1
:1005E00030911E0123E0230F2D3758F50196A11DF0
:1005F000B11D20931E0180931F0190932001A093B1
:100600002101B09322018091230190912401A091B6
:100610002501B09126010196A11DB11D80932301F2
:1006200090932401A0932501B0932601BF91AF912F
:100630009F918F913F912F910F900FBE0F901F9020
:10064000189526E8230F0296A11DB11DD2CF7894EC
:1006500084B5826084BD84B5816084BD85B58260C7
:1006600085BD85B5816085BD80916E008160809378
:100670006E001092810080918100826080938100E1
:1006800080918100816080938100809180008160F1
:10069000809380008091B10084608093B10080914C
:1006A000B00081608093B00080917A008460809374
:1006B0007A0080917A00826080937A0080917A003B
:1006C000816080937A0080917A00806880937A00BC
:1006D0001092C10082E00E94350211E4C0E0D0E037
:1006E00010937C0080917A00806480937A008091DE
:1006F0007A0086FDFCCF8091780060917900762F9A
:10070000682F072E000C880B990B0E94B10520E082
:1007100030E040EA50E40E94660620E030EC4FE70B
:1007200054E40E940E056B017C01E1E080913A01E6
:100730008111E0E0E195F0E0E95DFE4F8489806899
:100740000E942F028CE091E00E944801E0913A0162
:10075000E230F0F5E150F0E0E95DFE4F8489806819
:100760000E942F02A7019601C701B6010E94D3067D
:10077000882381F181E191E00E9448010E941F01DC
:100780004B015C0184E6C82ED12CE12CF12C0E9497
:100790001F01681979098A099B09683E7340810520
:1007A0009105A8F321E0C21AD108E108F10888EE0A
:1007B000880E83E0981EA11CB11CC114D104E10471
:1007C000F10429F7209709F48BCF0E94000088CF0D
:1007D000E1E0C1CF46015701E894B7F82FEF3FEFB2
:1007E0004FE75FE7C501B4010E94D30681110DC038
:1007F0002FEF3FEF4FE75FE7C501B4010E94090506
:1008000018161CF485E191E0B7CF2FEF3FEF4FE7CB
:100810005FE4C701B6010E94610618161CF489E165
:1008200091E0AACF2FEF3FEF4FE75FECC701B60192
:100830000E94090587FDF3CF20E030E0A901C70140
:10084000B6010E94090587FF0AC041E06DE287E218
:1008500091E00E94DC01F7FAF094F7F8F0942AE0B6
:1008600037ED43EA5BE3C701B6010E949D044B01EB
:100870005C010E9480056B017C010E94AF059B0119
:10088000AC01C501B4010E949C044B015C014AE02B
:10089000C701B6010E94550141E06EE287E291E096
:1008A0000E94DC0120E030E040E251E4C501B401E7
:1008B0000E9466064B015C010E9480056B01F12CD1
:1008C000E12C4AE0C701B6010E945501C701B601FB
:1008D0000E94AF059B01AC01C501B4010E949C04BC
:1008E00020E030E040E251E40E9466060E9480056C
:1008F00090E080E04AE00E94550140CFE7E2F1E05D
:100900001382128284E091E09183808388E0848363
:100910008FEF858389E0868384E0878385E0808705
:1009200086E0818787E0828713861486158616867F
:10093000178681E00C9435025058BB27AA270E94E5
:10094000B4040C9427060E94190638F00E94200671
:1009500020F039F49F3F19F426F40C9416060EF497
:10096000E095E7FB0C941006E92F0E94380658F337
:10097000BA17620773078407950720F079F4A6F584
:100980000C945A060EF4E0950B2EBA2FA02D0B01F5
:10099000B90190010C01CA01A0011124FF27591BC4
:1009A00099F0593F50F4503E68F11A16F040A22FCA
:1009B000232F342F4427585FF3CF4695379527953B
:1009C000A795F0405395C9F77EF41F16BA0B620B3A
:1009D000730B840BBAF09150A1F0FF0FBB1F661F81
:1009E000771F881FC2F70EC0BA0F621F731F841FC4
:1009F00048F4879577956795B795F7959E3F08F0EA
:100A0000B0CF9395880F08F09927EE0F97958795AB
:100A100008950E94EC0508F481E008950E942205E3
:100A20000C9427060E94200658F00E94190640F0F8
:100A300029F45F3F29F00C94100651110C945B06C9
:100A40000C9416060E94380668F39923B1F35523D7
:100A500091F3951B550BBB27AA27621773078407D1
:100A600038F09F5F5F4F220F331F441FAA1FA9F367
:100A700035D00E2E3AF0E0E832D091505040E69555
:100A8000001CCAF72BD0FE2F29D0660F771F881FB6
:100A9000BB1F261737074807AB07B0E809F0BB0BA9
:100AA000802DBF01FF2793585F4F3AF09E3F5105BD
:100AB00078F00C9410060C945B065F3FE4F3983ECC
:100AC000D4F3869577956795B795F7959F5FC9F7A6
:100AD000880F911D9695879597F90895E1E0660F27
:100AE000771F881FBB1F621773078407BA0720F0A0
:100AF000621B730B840BBA0BEE1F88F7E095089509
:100B00000E94400688F09F5798F0B92F9927B75157
:100B1000B0F0E1F0660F771F881F991F1AF0BA95A1
:100B2000C9F714C0B13091F00E945A06B1E008959F
:100B30000C945A06672F782F8827B85F39F0B93F91
:100B4000CCF3869577956795B395D9F73EF4909554
:100B50008095709561957F4F8F4F9F4F0895E894D2
:100B600009C097FB3EF490958095709561957F4FF5
:100B70008F4F9F4F9923A9F0F92F96E9BB279395A3
:100B8000F695879577956795B795F111F8CFFAF4B3
:100B9000BB0F11F460FF1BC06F5F7F4F8F4F9F4FE4
:100BA00016C0882311F096E911C0772321F09EE842
:100BB000872F762F05C0662371F096E8862F70E0A8
:100BC00060E02AF09A95660F771F881FDAF7880F82
:100BD0009695879597F90895990F0008550FAA0BD8
:100BE000E0E8FEEF16161706E807F907C0F0121640
:100BF0001306E407F50798F0621B730B840B950B43
:100C000039F40A2661F0232B242B252B21F4089597
:100C10000A2609F4A140A6958FEF811D811D089534
:100C200097F99F6780E870E060E008959FEF80EC9F
:100C3000089500240A941616170618060906089542
:100C400000240A9412161306140605060895092EA8
:100C50000394000C11F4882352F0BB0F40F4BF2B17
:100C600011F460FF04C06F5F7F4F8F4F9F4F089557
:100C700057FD9058440F551F59F05F3F71F047954D
:100C8000880F97FB991F61F09F3F79F08795089532
:100C9000121613061406551FF2CF4695F1DF08C051
:100CA000161617061806991FF1CF8695710561056E
:100CB00008940895E894BB2766277727CB0197F916
:100CC00008950E94EC0508F48FEF08950E947906BC
:100CD0000C9427060E94190638F00E94200620F086
:100CE000952311F00C9410060C94160611240C9404
:100CF0005B060E94380670F3959FC1F3950F50E094
:100D0000551F629FF001729FBB27F00DB11D639FBD
:100D1000AA27F00DB11DAA1F649F6627B00DA11D63
:100D2000661F829F2227B00DA11D621F739FB00D09
:100D3000A11D621F839FA00D611D221F749F332779
:100D4000A00D611D231F849F600D211D822F762F12
:100D50006A2F11249F5750409AF0F1F088234AF0EF
:100D6000EE0FFF1FBB1F661F771F881F915050405B
:100D7000A9F79E3F510580F00C9410060C945B0679
:100D80005F3FE4F3983ED4F3869577956795B795E2
:100D9000F795E7959F5FC1F7FE2B880F911D9695FC
:100DA000879597F908950E94EC05880B990B089593
:100DB000A1E21A2EAA1BBB1BFD010DC0AA1FBB1F5F
:100DC000EE1FFF1FA217B307E407F50720F0A21BD1
:100DD000B30BE40BF50B661F771F881F991F1A943E
:100DE00069F760957095809590959B01AC01BD0168
:100DF000CF010895EE0FFF1F0590F491E02D0994A7
:100E0000F894FFCF00000000D702A600450144017E
:100E1000534F5321006E616E00696E66006F7666F7
:020E20000000D0
:107E0000112484B714BE81FFF0D085E080938100F7
:107E100082E08093C00088E18093C10086E0809377
:107E2000C20080E18093C4008EE0C9D0259A86E02C
:107E300020E33CEF91E0309385002093840096BBD3
:107E4000B09BFECF1D9AA8958150A9F7CC24DD24C4
:107E500088248394B5E0AB2EA1E19A2EF3E0BF2EE7
:107E6000A2D0813461F49FD0082FAFD0023811F036
:107E7000013811F484E001C083E08DD089C08234E0
:107E800011F484E103C0853419F485E0A6D080C0E4
:107E9000853579F488D0E82EFF2485D0082F10E0AE
:107EA000102F00270E291F29000F111F8ED06801E7
:107EB0006FC0863521F484E090D080E0DECF843638
:107EC00009F040C070D06FD0082F6DD080E0C81688
:107ED00080E7D80618F4F601B7BEE895C0E0D1E017
:107EE00062D089930C17E1F7F0E0CF16F0E7DF06D8
:107EF00018F0F601B7BEE89568D007B600FCFDCFD4
:107F0000A601A0E0B1E02C9130E011968C91119780
:107F100090E0982F8827822B932B1296FA010C0160
:107F200087BEE89511244E5F5F4FF1E0A038BF0790
:107F300051F7F601A7BEE89507B600FCFDCF97BE46
:107F4000E89526C08437B1F42ED02DD0F82E2BD052
:107F50003CD0F601EF2C8F010F5F1F4F84911BD097
:107F6000EA94F801C1F70894C11CD11CFA94CF0C13
:107F7000D11C0EC0853739F428D08EE10CD085E9AC
:107F80000AD08FE07ACF813511F488E018D01DD067
:107F900080E101D065CF982F8091C00085FFFCCF94
:107FA0009093C60008958091C00087FFFCCF809118
:107FB000C00084FD01C0A8958091C6000895E0E648
:107FC000F0E098E1908380830895EDDF803219F02E
:107FD00088E0F5DFFFCF84E1DECF1F93182FE3DFCA
:107FE0001150E9F7F2DF1F91089580E0E8DFEE27F6
:047FF000FF270994CA
:027FFE00040479
:00000001FF
